:100000000C9463000C9421060C944E060C948B0007
:100010000C948B000C948B000C948B000C94D105E9
:100020000C948B000C948B000C948B000C948B0024
:100030000C948B000C948B000C948B000C948B0014
:100040000C947B060C948B000C9471090C94A309FE
:100050000C948B000C948B000C948B000C948B00F4
:100060000C948B000C948B0000000008000201002F
:100070000003040700000000000000000102040863
:100080001020408001020408102001020408102002
:10009000040404040404040402020202020203032E
:1000A00003030303000000002300260029000000D2
:1000B0000000250028002B0000000000240027007D
:1000C0002A007902D30911241FBECFEFD8E0DEBF8A
:1000D000CDBF11E0A0E0B1E0E6EDF7E102C0059090
:1000E0000D92A039B107D9F722E0A0E9B1E001C033
:1000F0001D92AC36B207E1F710E0C6ECD0E004C0C8
:100100002297FE010E94C00BC23CD107C9F70E9492
:10011000170A0C94E90B0C940000CF93DF931F9205
:10012000CDB7DEB781E089830F90DF91CF9108953D
:1001300026E040E855E260E070E08FEC91E00E943C
:10014000150920E042E060E185E991E00E946C033E
:1001500085E991E00E944B0361E089E00E949A07E3
:1001600061E088E00E949A0761E087E00E949A07B8
:1001700061E086E00E949A0761E085E00E949A07AC
:1001800061E084E00E949A0761E083E00E949A07A0
:1001900061E081E10E949A0761E082E10E949A0792
:1001A00065E071E085E991E00E94640A61E070E039
:1001B00081EC91E00E94FA058093920162E070E088
:1001C00081EC91E00E94FA058093910161E089E061
:1001D0000E949A0743E050E06DE870E080E00E94E2
:1001E000010668EC70E080E090E00C94E806CF93A4
:1001F000DF9320E042E060E185E991E00E946C033A
:1002000085E991E00E944B0366E171E085E991E0A8
:100210000E94640A68EC70E080E090E00E94E806CA
:1002200064E18DEA91E00E945005EC0185E991E0DE
:100230000E944B03CE0169E370E00E945E0B462FE3
:1002400060E070E081EC91E00E94FD0565E271E004
:1002500085E991E00E94640A68EC70E080E090E03B
:10026000DF91CF910C94E806AF92BF92CF92DF92CC
:10027000EF92FF920F931F93CF93CAEF8EE00E94ED
:100280005407BC01882777FD8095982F1F921F92F5
:100290001F92CF93A12CB12C6501EE24EA9413E0B8
:1002A000F12E00E010E020E030E0A9010E94060BF2
:1002B000462F6093920161E070E081EC91E00E9432
:1002C000FD058FE00E945407BC01882777FD8095CB
:1002D000982F1F921F921F92CF9320E030E0A90128
:1002E0000E94060B809192012DB73EB7285F3F4FC9
:1002F0000FB6F8943EBF0FBE2DBF681718F4609379
:10030000910102C0809391014091910162E070E0FF
:1003100081EC91E00E94FD0563E371E08FEC91E0D8
:100320000E94640A4AE050E0609192018FEC91E0F3
:100330000E94E90A60E471E08FEC91E00E94640A97
:100340004AE050E0609191018FEC91E00E94E90A4F
:1003500020E042E060E185E991E00E946C0385E9DC
:1003600091E00E944B0363E371E085E991E00E9414
:10037000640A4AE050E06091920185E991E00E94B0
:10038000E20A41E060E085E991E00E94520360E406
:1003900071E085E991E00E94640A4AE050E06091D2
:1003A000910185E991E00E94E20A68EC70E080E04A
:1003B00090E00E94E80680E10E940908892B09F07C
:1003C0005DCFCF911F910F91FF90EF90DF90CF9075
:1003D000BF90AF9008951F93CF93DF9360E070E0DC
:1003E00081EC91E00E94FA0590E090939401809353
:1003F000930164E18DEA91E00E94500569E370E0A9
:100400000E945E0BEB016091930170919401C617FD
:10041000D70718F4162F1C1B01C010E06DE471E023
:100420008FEC91E00E94640A4AE050E0BE018FEC3C
:1004300091E00E94000B64E571E08FEC91E00E9476
:100440006A0A68E571E08FEC91E00E94640A4AE074
:1004500050E0612F8FEC91E00E94E20A64E571E0C8
:100460008FEC91E00E946A0A20E042E060E185E9B9
:1004700091E00E946C0385E991E00E944B0361E6E4
:1004800071E085E991E00E94640A41E060E085E95D
:1004900091E00E9452034AE050E0612F85E991E02B
:1004A0000E94E20A64E571E085E991E00E94640A35
:1004B00080919101181710F461E005C080919201BC
:1004C000811720F460E089E00E94D30780919001B9
:1004D00081110E94F70080E10E940908892B29F010
:1004E000DF91CF911F910C943401DF91CF911F9137
:1004F00008958F92AF92CF92EF920F932AEF30E050
:100500004CE06DE08DEA91E00E945B0482E18F9304
:1005100081E18F9333E0832E44E0A42E55E0C52E75
:1005200066E0E62E07E028E04BE06AE085E991E02E
:100530000E9427040F900F900F91EF90CF90AF90F3
:100540008F900895CF93DF93EC0160E08E810E943D
:10055000D30781E090E00E94100761E08E810E9445
:10056000D30781E090E00E94100760E08E810E9436
:10057000D30784E690E0DF91CF910C941007CF92DF
:10058000DF92EF92FF920F931F93CF93DF937C0143
:10059000C0E0D0E0C62ED12C87010C0F1D1F61E0FA
:1005A000F80187810E949A07B6010C2E02C075954A
:1005B00067950A94E2F76170F80187810E94D3077A
:1005C0002196C430D10541F7C701DF91CF911F912A
:1005D0000F91FF90EF90DF90CF900C94A202CF92FA
:1005E000DF92EF92FF920F931F93CF93DF937C01E3
:1005F000C0E0D0E0C62ED12C87010C0F1D1F61E09A
:10060000F80187810E949A07B6010C2E02C07595E9
:1006100067950A94E2F76170F80187810E94D30719
:100620002196C830D10541F7C701DF91CF911F91C5
:100630000F91FF90EF90DF90CF900C94A2021F9348
:10064000CF93DF93EC01162F642F8C810E94D30788
:100650008D818F3F19F060E00E94D3078F85612F55
:1006600084FF06C0CE01DF91CF911F910C94EF0261
:1006700070E084E0759567958A95E1F7CE010E9458
:10068000BF02612FCE01DF91CF911F910C94BF0269
:1006900040E00C941F0361E00E94480380ED97E066
:1006A0000C941007443008F043E0FC012389421702
:1006B00010F04FEF420FFC01E40FF11D2489260FCB
:1006C0002068622F0C944803FC016089262F246067
:1006D000208B6C600C944803CF93DF93EC01423085
:1006E00018F08F8588608F874B8B1C8A80E48D8BF8
:1006F0006E8B70E0605C7F4F6F8B222329F041305E
:1007000019F48F8584608F8780E593EC0E94100731
:1007100060E08C810E94D30760E08E810E94D30745
:100720008D818F3F19F060E00E94D3076F8564FDD3
:100730001DC063E0CE010E94BF0284E991E10E94E6
:10074000100763E0CE010E94BF0284E991E10E949C
:10075000100763E0CE010E94BF0286E990E00E948C
:10076000100762E0CE010E94BF0216C06062CE0197
:100770000E94480384E991E10E9410076F8560623E
:10078000CE010E94480386E990E00E9410076F8521
:100790006062CE010E9448036F856062CE010E94B4
:1007A000480384E0888BCE010E946403CE010E943E
:1007B0004B0382E0898B66E0CE01DF91CF910C94F0
:1007C00048036F927F928F92AF92CF92EF920F93E6
:1007D0001F93CF93DF93CDB7DEB73C01162F842F45
:1007E0005D854E853F859889F30184832583068343
:1007F000E782C086A186828653874487358796879D
:1008000061E00E949A07F30185818F3F19F061E052
:100810000E949A0761E0F30186810E949A071123E2
:1008200019F0F301178603C080E1F301878720E008
:1008300041E060E1C301DF91CF911F910F91EF90F3
:10084000CF90AF908F907F906F900C946C038F92AD
:10085000AF92CF92EF920F93CF93DF93CDB7DEB7E6
:10086000DC0113961C921E921297EDE6F1E0ED93D7
:10087000FC933B853F933A853F938F92AF928C2CAC
:10088000AE2CC02EE22E042F2FEF462F60E00E94E8
:10089000E1030F900F900F900F90DF91CF910F9188
:1008A000EF90CF90AF908F90089541E00E941F038A
:1008B00081E090E00895CF93DF93DC0170E0FB01CD
:1008C000E458FF4FE4911496EC931497842F90E032
:1008D000FC01E458FF4FE4911596EC93159760578F
:1008E0007F4FFB01C491D0E0CC0FDD1FC255DF4F1D
:1008F000FE014591549117965C934E931697FC0117
:10090000E057FF4F849190E0880F991F8C559F4FBF
:10091000FC01459154911B965C934E931A97FB01F1
:100920006491E62FF0E0EE0FFF1FE854FF4F859132
:10093000949119969C938E931897C901253FF1E0E5
:100940003F0714F084EF91E049E3489F9001499FED
:10095000300D1124245E3F4F1D963C932E931C971F
:10096000DF91CF9108950F931F93CF93DF93EC0105
:10097000E885F98580819C81892B8083EE81FF81C8
:1009800090818C8180958923808384E090E00E940F
:100990001007EE81FF8180819C81892B80838AE012
:1009A00090E00E941007EE81FF8190818C818095FC
:1009B00089238083E885F98590818C8180958923BE
:1009C00080830E94C506605B794B8F4F9F4F6E8777
:1009D0007F87888B998BEA85FB8580819D81892320
:1009E00059F00E94C5060E851F852889398906178A
:1009F00017072807390778F7EA85FB8580819D81ED
:100A0000892369F40E94C5060E851F8528893989C6
:100A1000061717072807390778F780E00DC00E94EE
:100A2000C5062C853D85620F731F811D911D6E8744
:100A30007F87888B998B81E0DF91CF911F910F91F8
:100A400008950F931F93CF93DF93EC010E94B3049B
:100A5000882389F0EA85FB8580819D81892371F057
:100A60000E94C5060E851F85288939890617170734
:100A70002807390778F720E030E00CC00E94C5064F
:100A80002C853D85255031094E855F85241B350B0E
:100A9000260F371FC901DF91CF911F910F91089544
:100AA0008F929F92AF92BF92CF92DF92EF92FF927E
:100AB0000F931F93CF93DF93CDB7DEB77C01962EB4
:100AC000CDB6DEB68DB79EB7E2E06E9F8019910974
:100AD00011240FB6F8949EBF0FBE8DBF0DB71EB781
:100AE0000F5F1F4FEDB7FEB712821182812C8DE18F
:100AF000A82EB12C8914E0F5C7010E9421050097AA
:100B000029F49A94F7018485958524C0811002C048
:100B100060E018C0682D462F50E0FA013197EE0FC3
:100B2000FF1FE00FF11F208131812817390750F492
:100B3000FA01EE0FFF1FE00FF11F31832083615098
:100B400051F7E6CFF801E60FF11DE60FF11D918395
:100B500080838394891470F6892F992786958695CA
:100B6000B501681B790B80E090E00E94E806C2CFD7
:100B7000892D8E7FF801E80FF11D808191810FB6DC
:100B8000F894DEBE0FBECDBEDF91CF911F910F91C5
:100B9000FF90EF90DF90CF90BF90AF909F908F909D
:100BA00008951F920F920FB60F9211242F933F9327
:100BB0004F935F936F937F938F939F93AF93BF9365
:100BC000EF93FF93E091BF01F091C001309709F0DE
:100BD0000995FF91EF91BF91AF919F918F917F9177
:100BE0006F915F914F913F912F910F900FBE0F909A
:100BF0001F901895CB010C94D30BCB01642F0C9450
:100C0000DB0B8230E8F4E82FF0E0EE0FFF1FEE532D
:100C1000FE4F71836083813041F0809169008C7F49
:100C2000842B80936900E89A089580916900440FAD
:100C3000551F440F551F837F842B80936900E99AC9
:100C400008951F920F920FB60F9211242F933F9386
:100C50004F935F936F937F938F939F93AF93BF93C4
:100C6000EF93FF938091C2019091C301892B29F0EA
:100C7000E091C201F091C3010995FF91EF91BF91FD
:100C8000AF919F918F917F916F915F914F913F9124
:100C90002F910F900FBE0F901F9018951F920F92DB
:100CA0000FB60F9211242F933F934F935F936F933F
:100CB0007F938F939F93AF93BF93EF93FF93809115
:100CC000C4019091C501892B29F0E091C401F091F4
:100CD000C5010995FF91EF91BF91AF919F918F91C0
:100CE0007F916F915F914F913F912F910F900FBE28
:100CF0000F901F9018951F920F920FB60F9211240C
:100D00002F933F938F939F93AF93BF938091C7018E
:100D10009091C801A091C901B091CA013091C6015A
:100D200026E0230F2D3720F40296A11DB11D05C02A
:100D300029E8230F0396A11DB11D2093C6018093BE
:100D4000C7019093C801A093C901B093CA018091D3
:100D5000CB019091CC01A091CD01B091CE01019633
:100D6000A11DB11D8093CB019093CC01A093CD0127
:100D7000B093CE01BF91AF919F918F913F912F91F1
:100D80000F900FBE0F901F9018953FB7F894809169
:100D9000CB019091CC01A091CD01B091CE0126B5AF
:100DA000A89B05C02F3F19F00196A11DB11D3FBFA3
:100DB0006627782F892F9A2F620F711D811D911D33
:100DC00043E0660F771F881F991F4A95D1F7089552
:100DD000CF92DF92EF92FF92CF93DF936B017C0172
:100DE0000E94C506EB01C114D104E104F10489F0AD
:100DF0000E944D0B0E94C5066C1B7D0B683E734024
:100E000090F381E0C81AD108E108F108C851DC4F1D
:100E1000EACFDF91CF91FF90EF90DF90CF900895D0
:100E20008330910528F0880F991F04970197F1F7F7
:100E30000895789484B5826084BD84B5816084BD52
:100E400085B5826085BD85B5816085BDEEE6F0E043
:100E5000808181608083E1E8F0E01082808182609F
:100E60008083808181608083E0E8F0E08081816020
:100E70008083E1EBF0E0808184608083E0EBF0E050
:100E8000808181608083EAE7F0E0808184608083F4
:100E900080818260808380818E7F80838081806872
:100EA00080831092C10008958E3008F08E508770B4
:100EB0002091040190E4299F90011124822B8093BA
:100EC0007C0080917A00806480937A0080917A001F
:100ED00086FDFCCF809178002091790090E0922BE4
:100EE0000895833081F028F4813099F08230A1F0A8
:100EF00008958730A9F08830B9F08430D1F480911A
:100F000080008F7D03C0809180008F778093800068
:100F1000089584B58F7702C084B58F7D84BD089510
:100F20008091B0008F7703C08091B0008F7D809357
:100F3000B0000895CF93DF9390E0FC01E458FF4F99
:100F40002491FC01E057FF4F8491882349F190E000
:100F5000880F991FFC01E854FF4FA591B491825569
:100F60009F4FFC01C591D4919FB7611108C0F894BF
:100F70008C91209582238C93888182230AC06230D1
:100F800051F4F8948C91322F309583238C9388817F
:100F9000822B888304C0F8948C91822B8C939FBF02
:100FA000DF91CF9108950F931F93CF93DF931F92FB
:100FB000CDB7DEB7282F30E0F901E859FF4F849113
:100FC000F901E458FF4F1491F901E057FF4F0491E4
:100FD0000023C9F0882321F069830E947107698189
:100FE000E02FF0E0EE0FFF1FE255FF4FA591B49107
:100FF0009FB7F8948C91611103C01095812301C0B3
:10100000812B8C939FBF0F90DF91CF911F910F91F8
:101010000895CF93DF93282F30E0F901E859FF4F6F
:101020008491F901E458FF4FD491F901E057FF4F43
:10103000C491CC2391F081110E947107EC2FF0E054
:10104000EE0FFF1FEC55FF4FA591B4912C912D236E
:1010500081E090E021F480E002C080E090E0DF9148
:10106000CF910895FC01818D228D90E0805C9F4F8F
:10107000821B91098F7399270895FC01918D828DB0
:10108000981731F0828DE80FF11D858D90E008955D
:101090008FEF9FEF0895FC01918D828D981761F07D
:1010A000828DDF01A80FB11D5D968C91928D9F5F9F
:1010B0009F73928F90E008958FEF9FEF089589ECD2
:1010C00099E0892B49F080E090E0892B29F00E947B
:1010D000C90981110C9400000895FC01848DDF0181
:1010E000A80FB11DA35ABF4F2C91848D90E001969B
:1010F0008F739927848FA689B7892C93A089B1898A
:101100008C9180648C93938D848D981306C0028893
:10111000F389E02D80818F7D80830895CF93DF93C5
:10112000EC01888D8823C9F0EA89FB89808185FDDF
:1011300005C0A889B9898C9186FD0FC00FB607FC40
:10114000F5CF808185FFF2CFA889B9898C9185FF81
:10115000EDCFCE010E946D08E7CFDF91CF910895CA
:10116000CF92DF92FF920F931F93CF93DF931F9243
:10117000CDB7DEB76C0181E0D60158968C935897B5
:101180005B969C915B975C968C915C97981307C0DB
:101190005096ED91FC915197808185FD2EC0F6010E
:1011A000038D10E00F5F1F4F0F731127F02EF60114
:1011B000848DF81211C00FB607FCF9CFD6015096F6
:1011C000ED91FC915197808185FFF1CFC601698334
:1011D0000E946D086981EBCF838DE80FF11DE35A02
:1011E000FF4F6083D6015B960C935B975296ED910F
:1011F000FC915397808180620CC0D6015696ED9188
:10120000FC91579760835096ED91FC9151978081A6
:101210008064808381E090E00F90DF91CF911F91F7
:101220000F91FF90DF90CF900895BF92CF92DF9201
:10123000EF92FF92CF93DF93EC016A017B01B22E14
:1012400060E874E88EE190E0A70196010E94720BBD
:1012500021503109410951095695479537952795F0
:10126000E889F98982E08083211580E1380798F0C8
:10127000E889F989108260E472E48FE090E0A701C8
:1012800096010E94720B215031094109510956956E
:10129000479537952795EC85FD853083EE85FF854D
:1012A0002083188EEC89FD89B082EA89FB898081D0
:1012B00080618083EA89FB89808188608083EA89F4
:1012C000FB89808180688083EA89FB8980818F7DAA
:1012D0008083DF91CF91FF90EF90DF90CF90BF9010
:1012E00008951F920F920FB60F9211242F938F9390
:1012F0009F93EF93FF93E091DF01F091E0018081F4
:10130000E091E501F091E60182FD12C090818091AB
:10131000E8018F5F8F732091E901821751F0E0910E
:10132000E801F0E0E153FE4F958F8093E80101C0A2
:101330008081FF91EF919F918F912F910F900FBE20
:101340000F901F9018951F920F920FB60F921124B5
:101350002F933F934F935F936F937F938F939F93BD
:10136000AF93BF93EF93FF938FEC91E00E946D08D2
:10137000FF91EF91BF91AF919F918F917F916F916D
:101380005F914F913F912F910F900FBE0F901F9043
:1013900018958FEC91E00E94320821E0892B09F426
:1013A00020E0822F08951092D2011092D10188EE90
:1013B00093E0A0E0B0E08093D3019093D401A09398
:1013C000D501B093D60185E791E09093D001809349
:1013D000CF0185EC90E09093DC018093DB0184ECFD
:1013E00090E09093DE018093DD0180EC90E090939B
:1013F000E0018093DF0181EC90E09093E201809323
:10140000E10182EC90E09093E4018093E30186ECAB
:1014100090E09093E6018093E5011092E80110922C
:10142000E9011092EA011092EB01089508950E94DB
:1014300019070E94160A0E949800CFE5D8E00E9482
:10144000EB012097E1F30E945F08F9CFCF92DF9282
:10145000EF92FF920F931F93CF93DF936C017A016A
:10146000EB01E60EF71E00E010E0CE15DF0561F09F
:101470006991D601ED91FC910190F081E02DC601BA
:101480000995080F191FF1CFC801DF91CF911F9166
:101490000F91FF90EF90DF90CF9008956115710547
:1014A00081F0DB010D900020E9F7AD0141505109B9
:1014B000461B570BDC01ED91FC910280F381E02D7E
:1014C000099480E090E008950C944E0A61E871E080
:1014D0000C944E0A0F931F93CF93DF93EC010E945D
:1014E0004E0A8C01CE010E94660A800F911FDF9187
:1014F000CF911F910F9108958F929F92AF92BF92BB
:10150000CF92DF92EF92FF920F931F93CF93DF93CF
:10151000CDB7DEB7A1970FB6F894DEBF0FBECDBF33
:101520007C01C42EE52FCB01D22E19A221E02D156E
:1015300010F02AE0D22E8E010F5D1F4F8D2C912CC2
:10154000A12CB12C6C2D7E2FA50194010E94720B51
:101550008C2DD29E80191124015011098A3014F467
:10156000805D01C0895CF80180832115310541054A
:10157000510521F0C22EE32FCA01E4CFB801C70103
:101580000E944E0AA1960FB6F894DEBF0FBECDBFE3
:10159000DF91CF911F910F91FF90EF90DF90CF904F
:1015A000BF90AF909F908F9008952115310541F421
:1015B000DC01ED91FC910190F081E02D642F099404
:1015C0000C947C0A9A01462F50E060E070E00C9485
:1015D000D50A0F931F93CF93DF93EC019A01462F07
:1015E00050E060E070E00E94D50A8C01CE010E94BC
:1015F000660A800F911FDF91CF911F910F9108957F
:101600009A01AB0160E070E00C94D50A4F925F92B2
:101610006F927F92AF92BF92CF92DF92EF92FF9242
:101620000F931F93CF93DF93CDB7DEB729013A0114
:10163000621B730B840B950B29893A894B895C8952
:101640002A193B094C095D09298B3A8B4B8B5C8B22
:101650009B01AC0169897A898B899C890E944E0B18
:10166000E418F50806091709A80197010E94940BD0
:101670002A0D3B1D4C1D5D1DCA01B901DF91CF91A3
:101680001F910F91FF90EF90DF90CF90BF90AF90A0
:101690007F906F905F904F9008950895DB018F9336
:1016A0009F930E94B30BBF91AF91A29F800D911D9C
:1016B000A39F900DB29F900D11240895AA1BBB1BF0
:1016C00051E107C0AA1FBB1FA617B70710F0A61B42
:1016D000B70B881F991F5A95A9F780959095BC0163
:1016E000CD010895A1E21A2EAA1BBB1BFD010DC05E
:1016F000AA1FBB1FEE1FFF1FA217B307E407F507C2
:1017000020F0A21BB30BE40BF50B661F771F881F9D
:10171000991F1A9469F760957095809590959B0133
:10172000AC01BD01CF010895052E97FB1EF4009476
:101730000E94AB0B57FD07D00E94720B07FC03D031
:101740004EF40C94AB0B50954095309521953F4F3E
:101750004F4F5F4F089590958095709561957F4F9D
:101760008F4F9F4F08950E94C40BA59F900DB49F6B
:10177000900DA49F800D911D11240895EE0FFF1F61
:101780000590F491E02D0994A29FB001B39FC00190
:10179000A39F700D811D1124911DB29F700D811D9D
:1017A0001124911D0895F999FECF92BD81BDF89A3B
:1017B000992780B50895262FF999FECF1FBA92BDBB
:1017C00081BD20BD0FB6F894FA9AF99A0FBE019622
:0617D0000895F894FFCF1C
:1017D6000100000001496E697469616C697A696E7D
:1017E600672E2E2E2E0043616C6962726174696EDB
:1017F600672E2E2E0052657374617274696E672EA1
:101806002E2E004D6178204C6576656C203A2000BE
:101816004D696E204C6576656C203A200050696EE5
:10182600673A200020636D004865696768743A204E
:10183600004865696768743A000000000055042690
:101846000A00000000B008260A32084B083D088E40
:10185600080D0A006E616E00696E66006F7666009E
:00000001FF
