:100000000C9462000C948A000C948A000C948A0070
:100010000C948A000C948A000C948A000C944E066E
:100020000C948A000C948A000C948A000C948A0028
:100030000C948A000C948A000C948A000C948A0018
:100040000C9404060C948A000C94D2050C94AC0514
:100050000C948A000C948A000C948A000C948A00F8
:100060000C948A000C948A00000000080002010031
:100070000003040700000000000000000000000072
:10008000240027002A000000000023002600290089
:1000900000000000250028002B00040404040404D0
:1000A0000404020202020202030303030303010227
:1000B00004081020408001020408102001020408F6
:1000C0001020750611241FBECFEFD8E0DEBFCDBFD4
:1000D00011E0A0E0B1E0E4E3F3E102C005900D928D
:1000E000A638B107D9F722E0A6E8B1E001C01D9219
:1000F000A036B207E1F710E0C2E6D0E004C02197D5
:10010000FE010E948D09C136D107C9F70E9405077B
:100110000C9498090C94000090E0FC01E255FF4F0C
:100120002491FC01E656FF4F8491882399F090E0DA
:10013000880F991FFC01E458FF4FA591B491FC0171
:10014000E057FF4F859194918FB7F894EC91E22B93
:10015000EC938FBF0895CF92DF92EF92FF920F93AF
:100160001F93CF93DF936C017A018B01C0E0D0E045
:10017000CE15DF0589F0D8016D918D01D601ED9185
:10018000FC910190F081E02DC6010995892B11F4B5
:100190007E0102C02196ECCFC701DF91CF911F9164
:1001A0000F91FF90EF90DF90CF900895FC01538D59
:1001B000448D252F30E0842F90E0821B930B541741
:1001C00010F0CF96089501970895FC01918D828DCE
:1001D000981761F0828DDF01A80FB11D5D968C919B
:1001E000928D9F5F9F73928F90E008958FEF9FEFA6
:1001F0000895FC01918D828D981731F0828DE80F62
:10020000F11D858D90E008958FEF9FEF0895FC011B
:10021000918D228D892F90E0805C9F4F821B9109E8
:100220008F739927089589E991E00E94070121E0E1
:10023000892B09F420E0822F0895FC01848DDF01D1
:10024000A80FB11DA35ABF4F2C91848D90E0019649
:100250008F739927848FA689B7892C93A089B18938
:100260008C9180648C93938D848D981306C0028842
:10027000F389E02D80818F7D80830895EF92FF9236
:100280000F931F93CF93DF93EC0181E0888F9B8DB9
:100290008C8D981305C0E889F989808185FD24C07B
:1002A000F62E0B8D10E00F5F1F4F0F731127E02EFE
:1002B0008C8DE8120CC00FB607FCFACFE889F989DB
:1002C000808185FFF5CFCE010E941D01F1CF8B8D7E
:1002D000FE01E80FF11DE35AFF4FF0820B8FEA8910
:1002E000FB898081806207C0EE89FF896083E8898D
:1002F000F98980818064808381E090E0DF91CF91F3
:100300001F910F91FF90EF900895CF93DF93EC0131
:10031000888D8823C9F0EA89FB89808185FD05C025
:10032000A889B9898C9186FD0FC00FB607FCF5CF5F
:10033000808185FFF2CFA889B9898C9185FFEDCFA7
:10034000CE010E941D01E7CFDF91CF91089580E09B
:1003500090E0892B29F00E94130181110C94000078
:100360000895833081F028F4813099F08230A1F033
:1003700008958730A9F08830B9F08430D1F48091A5
:1003800080008F7D03C0809180008F7780938000F4
:10039000089584B58F7702C084B58F7D84BD08959C
:1003A0008091B0008F7703C08091B0008F7D8093E3
:1003B000B0000895CF93DF93282F30E0F901E8597A
:1003C000FF4F8491F901E255FF4FD491F901E656B0
:1003D000FF4FC491CC2391F081110E94B101EC2F09
:1003E000F0E0EE0FFF1FEA57FF4FA591B491EC919B
:1003F000ED2381E090E021F480E002C080E090E015
:10040000DF91CF9108951F93CF93DF93282F30E092
:10041000F901E859FF4F8491F901E255FF4FD4915A
:10042000F901E656FF4FC491CC23C9F0162F811174
:100430000E94B101EC2FF0E0EE0FFF1FE057FF4FDD
:10044000A591B4918FB7F894111105C09C91ED2F2F
:10045000E095E92302C0EC91ED2BEC938FBFDF9187
:10046000CF911F9108958E3008F08E508770806470
:1004700080937C0080917A00806480937A008091E0
:100480007A0086FDFCCF809178002091790090E081
:10049000922B08953FB7F894809191019091920129
:1004A000A0919301B091940126B5A89B05C02F3F60
:1004B00019F00196A11DB11D3FBFBA2FA92F982F8A
:1004C0008827820F911DA11DB11DBC01CD0142E005
:1004D000660F771F881F991F4A95D1F708958F924D
:1004E0009F92AF92BF92CF92DF92EF92FF926B01F9
:1004F0007C010E944A024B015C01C114D104E10459
:10050000F104F1F00E944A02DC01CB01881999093B
:10051000AA09BB09883E9340A105B10570F321E00B
:10052000C21AD108E108F10888EE880E83E0981E0F
:10053000A11CB11CC114D104E104F10419F7DDCFF1
:10054000FF90EF90DF90CF90BF90AF909F908F90F3
:100550000895CF93DF93EC0160E08E810E94030247
:1005600061E08E810E94030260E08E810E9403029E
:100570008BE891E00197F1F7DF91CF910895CF9249
:10058000DF92EF92FF920F931F93CF93DF937C0143
:100590006C0187E0C80ED11CC0E0D0E0062F10E04F
:1005A000B8010C2E02C0759567950A94E2F7617048
:1005B000F60181916F010E9403022196C430D1059A
:1005C00079F7C701DF91CF911F910F91FF90EF90C5
:1005D000DF90CF900C94A902CF92DF92EF92FF921E
:1005E0000F931F93CF93DF93EC01F62E642F8C8132
:1005F0000E9403028D818F3F19F060E00E94030288
:100600008F850F2D10E084FF25C06E0187E0C80E96
:10061000D11CE12CF12CB8010E2C02C07595679508
:100620000A94E2F76170F60181916F010E94030262
:10063000FFEFEF1AFF0A88E0E816F10461F7CE0138
:10064000DF91CF911F910F91FF90EF90DF90CF90AE
:100650000C94A902B80184E0759567958A95E1F735
:10066000CE010E94BF026F2DCE01DF91CF911F916D
:100670000F91FF90EF90DF90CF900C94BF0241E07C
:100680000E94EC0281E090E0089540E00C94EC02BE
:1006900061E00E9445038BE39FE10197F1F7089524
:1006A000EF92FF920F931F93CF93DF93EC01623091
:1006B00018F08F8588608F876B8B1C8A80E48D8B08
:1006C00080E18E8B80E58F8B8C810E948C008D81E8
:1006D0008F3F11F00E948C008E810E948C007E0161
:1006E00087E0E80EF11C00E010E08F8584FD03C078
:1006F00084E090E002C088E090E00817190744F415
:10070000F70181917F010E948C000F5F1F4FEDCF99
:100710008BE39DE00197F1F760E08C810E9403027A
:1007200060E08E810E9403028D818F3F19F060E0AE
:100730000E9403026F8564FD1DC063E0CE010E942C
:10074000BF020BE416E4C8010197F1F763E0CE01A4
:100750000E94BF02C8010197F1F763E0CE010E9439
:10076000BF0283E592E00197F1F762E0CE010E94BB
:10077000BF0216C06062CE010E9445038BE496E47E
:100780000197F1F76F856062CE010E94450383E512
:1007900092E00197F1F76F856062CE010E944503F8
:1007A0006F856062CE010E94450384E0888B6CE017
:1007B000CE010E944503CE010E94480382E0898B4E
:1007C00066E0CE01DF91CF911F910F91FF90EF90E6
:1007D0000C944503089580E090E008952F923F9295
:1007E0004F925F926F927F928F929F92AF92BF9241
:1007F000CF92DF92EF92FF920F931F93CF93DF93ED
:10080000CDB7DEB7182F4DB65EB62DB73EB742E076
:10081000849F2019310911240FB6F8943EBF0FBEF2
:100820002DBF8DB79EB701963C01EDB7FEB7128282
:10083000118200E08BE0282E312C98EE892E93E077
:10084000992EA12CB12C011708F004C10E944A0274
:100850006B017C01E0915802F091590290818091E6
:100860005202892B8083E0915402F09155029081CD
:1008700080915202809589238083C1010197F1F70D
:10088000E0915402F0915502908180915202892B9F
:10089000808383E290E00197F1F7E0915402F091B8
:1008A0005502908180915202809589238083E09146
:1008B0005802F091590290818091520280958923CB
:1008C0008083E0915602F09157029081809153020B
:1008D000892309F094C00E944A0220915A02309163
:1008E0005B0240E050E02855394E4F4F5F4FDC012E
:1008F000CB01820F931FA41FB51F80935C029093BE
:100900005D02A0935E02B0935F02E0915602F09107
:100910005702908180915302892381F40E944A02F8
:1009200020915C0230915D0240915E0250915F0225
:10093000261737074807590740F761C00E944A0247
:1009400020915A0230915B02DC01CB01820F931F90
:10095000A11DB11D80935C0290935D02A0935E0285
:10096000B0935F02E0915602F0915702908180911E
:100970005302892381F00E944A0220915C02309147
:100980005D0240915E0250915F02261737074807CB
:10099000590740F734C00E944A0220915A02309110
:1009A0005B02A9014550510920915C0230915D0222
:1009B000FA01E21BF30B6E0F7F1F61157105F9F051
:1009C000011102C020E012C0202FF301E20FF11D3F
:1009D000E20FF11DDF0112978D919C918617970709
:1009E00028F491838083215081F7ECCFF301E20F4B
:1009F000F11DE20FF11D718360830F5F01C0115083
:100A0000011708F020CF0E944A02DC01CB018C19AB
:100A10009D09AE09BF0988349147A105B10508F0C9
:100A200012CF0E944A0228E4C20E21E7D21EE11C26
:100A3000F11CA7019601261B370B480B590BCA0165
:100A4000B901A50194010E944109CA01B9010E949E
:100A50006F02F9CE1E7FF301E10FF11D60817181FC
:100A600080E090E00FB6F8945EBE0FBE4DBEDF9101
:100A7000CF911F910F91FF90EF90DF90CF90BF909B
:100A8000AF909F908F907F906F905F904F903F902E
:100A90002F9008950E9493096115710579F0FB016B
:100AA00001900020E9F73197AF01461B570BDC019D
:100AB000ED91FC910280F381E02D099480E090E0BB
:100AC00008954F925F926F927F92EF92FF920F93F1
:100AD0001F93CF93DF93CDB7DEB7A1970FB6F894EE
:100AE000DEBF0FBECDBF7C01FA01CB0119A22230BF
:100AF00008F42AE08E010F5D1F4F422E512C612C0D
:100B0000712CBF01A30192010E944109F901CA01A0
:100B1000015011096A3014F4605D01C0695CD801AC
:100B20006C93232B242B252B61F7B801C7010E945E
:100B30004C05A1960FB6F894DEBF0FBECDBFDF9176
:100B4000CF911F910F91FF90EF907F906F905F90EA
:100B50004F9008950C944C051F920F920FB60F9270
:100B600011242F933F934F935F936F937F938F93B2
:100B70009F93AF93BF93EF93FF9389E991E00E9416
:100B80001D01FF91EF91BF91AF919F918F917F9147
:100B90006F915F914F913F912F910F900FBE0F90EA
:100BA0001F9018951F920F920FB60F9211242F933A
:100BB0008F939F93EF93FF93E091A901F091AA0186
:100BC0008081E091AF01F091B00182FD12C090816F
:100BD0008091B2018F5F8F732091B301821751F022
:100BE000E091B201F0E0E756FE4F958F8093B2019D
:100BF00001C08081FF91EF919F918F912F910F9074
:100C00000FBE0F901F9018951F920F920FB60F9264
:100C100011242F933F938F939F93AF93BF93809112
:100C20008D0190918E01A0918F01B0919001309132
:100C30008C0123E0230F2D3720F40196A11DB11D57
:100C400005C026E8230F0296A11DB11D20938C013B
:100C500080938D0190938E01A0938F01B0939001AA
:100C60008091910190919201A0919301B091940192
:100C70000196A11DB11D8093910190939201A093C3
:100C80009301B0939401BF91AF919F918F913F9148
:100C90002F910F900FBE0F901F9018951F920F92DB
:100CA0000FB60F9211242F933F934F935F936F933F
:100CB0007F938F939F93AF93BF93EF93FF93E091B5
:100CC0008A01F0918B010995FF91EF91BF91AF914E
:100CD0009F918F917F916F915F914F913F912F9154
:100CE0000F900FBE0F901F901895E9E9F1E0138265
:100CF000128288EE93E0A0E0B0E084839583A6831F
:100D0000B78384E091E09183808385EC90E09587C0
:100D1000848784EC90E09787868780EC90E0918BC5
:100D2000808B81EC90E0938B828B82EC90E0958BB2
:100D3000848B86EC90E0978B868B118E128E138EAF
:100D4000148EEBEBF0E0E491AEE4B2E01496EC9399
:100D50001497EAEBF0E0E4911596EC93159787EA87
:100D600090E0FC012491E22FF0E0EE0FFF1FE0572E
:100D7000FF4F2591349117963C932E931697E6EAF0
:100D8000F0E0E491F0E0EE0FFF1FEA57FF4F2591EE
:100D9000349119963C932E931897FC018491E82F77
:100DA000F0E0EE0FFF1FE458FF4F859194911B96E2
:100DB0009C938E931A9783EE97E31D969C938E9344
:100DC0001C97E6E3F2E01382128286E191E09183C0
:100DD000808387E084838FEF858386E086838AE043
:100DE00087838BE0808783E1818782E1828785E04A
:100DF000838782E0848784E0858783E0868780E13B
:100E0000878761E0CF010C945003789484B58260A9
:100E100084BD84B5816084BD85B5826085BD85B59E
:100E2000816085BD80916E00816080936E0010921C
:100E30008100809181008260809381008091810097
:100E40008160809381008091800081608093800028
:100E50008091B10084608093B1008091B000816086
:100E60008093B00080917A00846080937A008091B2
:100E70007A00826080937A0080917A00816080930A
:100E80007A0080917A00806880937A001092C10085
:100E9000E091A901F091AA0182E08083E091A5018F
:100EA000F091A6011082E091A701F091A8018FECCA
:100EB00080831092B101E091AD01F091AE0186E026
:100EC0008083E091AB01F091AC01808180618083EF
:100ED000E091AB01F091AC01808188608083E0916A
:100EE000AB01F091AC01808180688083E091AB011F
:100EF000F091AC0180818F7D808362E086E392E097
:100F00000E94500386E392E00E9448036EE171E084
:100F100086E392E00E94AA0581E090E00E940C091D
:100F20008093950182E090E00E940C0980939601E5
:100F300089E00E948C0068EC70E080E090E00E9404
:100F40006F02C9E3D0E0CC24CA9483E0D82EE12C10
:100F5000F12C80E090E00E940C09182F882E912C33
:100F6000909298018092970184E10E94EE03CB0158
:100F7000BE010E9472095B016815790510F4161B09
:100F800001C010E06FE271E089E991E00E94AA05DA
:100F9000A50160E070E02AE089E991E00E94610526
:100FA00066E371E089E991E00E944C056AE371E033
:100FB00089E991E00E944C056DE371E089E991E0D7
:100FC0000E94AA05812E912CA12CB12C2AE0B501FA
:100FD000A40189E991E00E94610566E371E089E975
:100FE00091E00E944C056AE371E089E991E00E947A
:100FF0004C0562E086E392E00E94500386E392E0B3
:101000000E94480366E471E086E392E00E94AA052C
:10101000E0914902E23010F4E15001C0E1E0F0E07B
:10102000EA5CFD4F6489606886E392E00E944503B4
:101030002AE0B501A40186E392E00E94610566E31F
:1010400071E086E392E00E94AA058091960118174C
:1010500010F461E005C080919501811720F460E0F3
:1010600089E00E94030280E10E94DA01892B09F4E1
:101070009AC08EE00E9433022AEF30E0DC010E9429
:101080008609A70196010E94220920939501622FEB
:1010900081E090E00E9414098FE00E9433022AEF61
:1010A00030E0DC010E948609A70196010E94220916
:1010B00080919501281718F42093960102C080931F
:1010C00096016091960182E090E00E9414096EE41E
:1010D00071E089E991E00E94AA054091950150E0F4
:1010E00060E070E02AE089E991E00E9461056AE32E
:1010F00071E089E991E00E944C056BE571E089E9B6
:1011000091E00E94AA054091960150E060E070E0F5
:101110002AE089E991E00E9461056AE371E089E9CA
:1011200091E00E944C0586E392E00E9448036EE441
:1011300071E086E392E00E94AA054091950150E09B
:1011400060E070E02AE086E392E00E946105E091B1
:101150004902E23010F4E15001C0E1E0F0E0EA5C65
:10116000FD4F6489606886E392E00E9445036BE569
:1011700071E086E392E00E94AA054091960150E05A
:1011800060E070E02AE086E392E00E94610580E181
:101190000E94DA01892B39F064EF71E080E090E081
:1011A0000E946F0266CF81E10E94DA01892B59F11A
:1011B00086E392E00E94480368E671E086E392E0ED
:1011C0000E94AA0568EC70E080E090E00E946F0247
:1011D00082E30E94EE03CB01BE010E94720980E00F
:1011E00090E00E94140986E392E00E94480367E7BA
:1011F00071E086E392E00E94AA0568EC70E080E06E
:1012000090E00E946F0264EF71E080E090E00E9445
:101210006F020E94A7019DCEF999FECF92BD81BDBC
:10122000F89A992780B50895262FF999FECF1FBA0D
:1012300092BD81BD20BD0FB6F894FA9AF99A0FBEFF
:1012400001960895052E97FB1EF400940E9439091B
:1012500057FD07D00E94410907FC03D04EF40C94BF
:10126000390950954095309521953F4F4F4F5F4F2D
:10127000089590958095709561957F4F8F4F9F4F02
:101280000895A1E21A2EAA1BBB1BFD010DC0AA1FC7
:10129000BB1FEE1FFF1FA217B307E407F50720F0DF
:1012A000A21BB30BE40BF50B661F771F881F991F5A
:1012B0001A9469F760957095809590959B01AC01A3
:1012C000BD01CF010895A29FB001B39FC001A39FAC
:1012D000700D811D1124911DB29F700D811D11246F
:1012E000911D0895AA1BBB1B51E107C0AA1FBB1F7C
:1012F000A617B70710F0A61BB70B881F991F5A95A2
:10130000A9F780959095BC01CD0108950E946309CD
:10131000B7FF0895821B930B0895EE0FFF1F0590F2
:10132000F491E02D099481E090E0F8940C949809F0
:04133000F894FFCF5F
:10133400000000003E01AB00D60085010701E50076
:10134400F900000000003F03AB00EB03EA03496E21
:10135400697469616C697A696E672E2E2E2E00504D
:10136400696E673A200020636D000D0A00486569C4
:101374006768743A20004865696768743A004D618B
:1013840078204C6576656C203A20004D696E204CBF
:101394006576656C203A200043616C696272617401
:1013A400696E672E2E2E0052657374617274696EB5
:0613B400672E2E2E000042
:00000001FF
